{
  "contractName": "Ownable",
  "abi": [
    {
      "inputs": [],
      "stateMutability": "nonpayable",
      "type": "constructor"
    },
    {
      "inputs": [],
      "name": "_owner",
      "outputs": [
        {
          "internalType": "address",
          "name": "",
          "type": "address"
        }
      ],
      "stateMutability": "view",
      "type": "function"
    },
    {
      "inputs": [],
      "name": "isOwner",
      "outputs": [
        {
          "internalType": "bool",
          "name": "",
          "type": "bool"
        }
      ],
      "stateMutability": "view",
      "type": "function"
    }
  ],
  "bytecode": "0x608060405234801561001057600080fd5b50336000806101000a81548173ffffffffffffffffffffffffffffffffffffffff021916908373ffffffffffffffffffffffffffffffffffffffff1602179055506101ba806100606000396000f3fe608060405234801561001057600080fd5b50600436106100365760003560e01c80638f32d59b1461003b578063b2bdfa7b14610059575b600080fd5b610043610077565b604051610050919061010d565b60405180910390f35b6100616100ce565b60405161006e9190610169565b60405180910390f35b60008060009054906101000a900473ffffffffffffffffffffffffffffffffffffffff1673ffffffffffffffffffffffffffffffffffffffff163373ffffffffffffffffffffffffffffffffffffffff1614905090565b60008054906101000a900473ffffffffffffffffffffffffffffffffffffffff1681565b60008115159050919050565b610107816100f2565b82525050565b600060208201905061012260008301846100fe565b92915050565b600073ffffffffffffffffffffffffffffffffffffffff82169050919050565b600061015382610128565b9050919050565b61016381610148565b82525050565b600060208201905061017e600083018461015a565b9291505056fea264697066735822122067e2a561428d18930e5b9896966a8afb454b917ff759d46ec2db368eac1bee5164736f6c634300080b0033",
  "immutableReferences": {},
  "source": "//SPDX-License-Identifier: MIT\r\n\r\n    pragma solidity ^0.8.11;\r\n\r\n    contract Ownable {\r\n        address public _owner;\r\n\r\n        constructor() {\r\n        _owner = msg.sender;\r\n        }\r\n        modifier onlyOwner () {\r\n            require (isOwner(), \"You are not the owner\");\r\n            _;\r\n        }\r\n\r\n        function isOwner() public view returns(bool){\r\n            return (msg.sender == _owner);\r\n        }\r\n    }\r\n\r\n\r\n    \r\n    contract Item {\r\n        uint public priceInWei;\r\n        uint public pricePaid;\r\n        uint public index;\r\n\r\n        ItemManager  parentContract;\r\n\r\n        constructor (ItemManager _parentContract, uint _priceInWei, uint _index) {\r\n            priceInWei = _priceInWei;\r\n            index = _index;\r\n            parentContract = _parentContract;\r\n\r\n        }\r\n\r\n        receive() external payable{\r\n            require (pricePaid == 0, \"Item is paid already\");\r\n            require (priceInWei == msg.value, \"Only full payments allowed\");\r\n            pricePaid += msg.value;\r\n           (bool success, ) = address(parentContract).call{value:msg.value}(abi.encodeWithSignature(\"triggerPayment(uint256)\", index));\r\n            require (success, \"The transaction wasn't successful, canceling\");\r\n        }\r\n        fallback() external {}\r\n    }\r\n\r\n    contract ItemManager is Ownable {\r\n    \r\n        enum SupplyChainState {Created, Paid, Delivered}\r\n\r\n        struct S_Item {\r\n            Item _item;\r\n            string _identifier;\r\n            uint _itemPrice;\r\n            ItemManager.SupplyChainState _state;\r\n        }\r\n\r\n        mapping (uint => S_Item) public items;\r\n        uint itemIndex;\r\n\r\n        event SupplyChainStep (uint _itemIndex, uint _step, address _itemAddress);\r\n\r\n        function createItem(string memory _identifier, uint _itemPrice) public onlyOwner {\r\n            Item item = new Item(this , _itemPrice, itemIndex);\r\n            items[itemIndex]._item = item;\r\n            items[itemIndex]._identifier = _identifier;\r\n            items[itemIndex]._itemPrice = _itemPrice;\r\n            items[itemIndex]._state = SupplyChainState.Created;\r\n\r\n            emit SupplyChainStep (itemIndex, uint(items[itemIndex]._state), address(item));\r\n            itemIndex++;\r\n\r\n        }\r\n\r\n        function triggerPayment (uint _itemIndex) payable public {\r\n            require (items[_itemIndex]._itemPrice == msg.value, \"Only full payments accepted\");\r\n            require (items[_itemIndex]._state == SupplyChainState.Created, \"Item is further in the chain\");\r\n            items[_itemIndex]._state = SupplyChainState.Paid;\r\n\r\n            emit SupplyChainStep (_itemIndex, uint(items[_itemIndex]._state), address (items[_itemIndex]._item));\r\n        }\r\n\r\n\r\n        function triggerDelivery(uint _itemIndex) public onlyOwner{\r\n            require (items[_itemIndex]._state == SupplyChainState.Paid, \"Item is further in the chain\");\r\n            items[_itemIndex]._state = SupplyChainState.Delivered;\r\n\r\n            emit SupplyChainStep (_itemIndex, uint(items[_itemIndex]._state), address (items[_itemIndex]._item));\r\n        }\r\n\r\n    }",
  "sourcePath": "C:/Users/Solar House/s06-eventtrigger/contracts/ItemManager.sol",
  "compiler": {
    "name": "solc",
    "version": "0.8.11+commit.d7f03943.Emscripten.clang"
  },
  "schemaVersion": "3.3.4",
  "updatedAt": "2022-01-25T22:58:53.272Z",
  "devdoc": {
    "kind": "dev",
    "methods": {},
    "version": 1
  },
  "userdoc": {
    "kind": "user",
    "methods": {},
    "version": 1
  }
}